:1000000000400020DD0700001D0800001F08000060
:1000100000000000000000000000000000000000E0
:1000200000000000000000000000000021080000A7
:100030000000000000000000230800002508000068
:100040002708000027080000890B0000270800008F
:100050002708000000000000270800002708000013
:100060002708000027080000F1050000270800000D
:1000700027080000270800002708000027080000C4
:1000800027080000050C00002708000027080000D2
:1000900027080000270800002708000027080000A4
:1000A00027080000270800000000000000000000F2
:1000B0000000000000000000000000000000000040
:1000C00010B5064C2378002B07D1054B002B02D02E
:1000D000044800E000BF0123237010BDC0000020D1
:1000E00000000000782A0000044B10B5002B03D05C
:1000F0000349044800E000BF10BDC04600000000F6
:10010000C4000020782A0000164B002B00D1144BAD
:100110009D46402292029A1A924600218B460F4633
:100120001348144A121A01F0BDFA0F4B002B00D0ED
:1001300098470E4B002B00D0984700200021040068
:100140000D000D48002802D00C4800E000BF01F06F
:1001500069FA2000290000F065FD01F04DFAC04663
:100160000000080000400020000000000000000027
:10017000C000002054020020000000000000000029
:1001800010B5040000F076F9200010BD70470000A3
:1001900010B5054C200000F059F9044A044920002C
:1001A00001F055F910BDC046DC0000200000002021
:1001B000810100000EB4802130B5184CC900A5445F
:1001C000FFAB183304CB040002A8019301F092FBAB
:1001D0001349022C02D8134BA200D158124D28000B
:1001E00000F0A3FA02A9280000F0ACFA280000F001
:1001F0002BFBFA2000F0F8FC022C08D1BFF34F8F44
:100200000A4B0B4ADA60BFF34F8FC046FDE78123EC
:10021000DB009D4430BC08BC03B01847F8FBFFFF6F
:10022000AC1F0000A01F0000DC01002000ED00E07A
:100230000400FA05E12110B50C4C4902200000F041
:10024000FDFA0B49200000F07DFA0A490020FFF773
:10025000B1FF094800F06AF8084C200000F038FAB5
:100260004721200000F030FA10BDC046DC0100201C
:10027000B61F0000C01F00001C010020DC00002091
:10028000F8B505000E0017000024BC4208D02B680A
:10029000315D1B6828009847002801D00134F4E73D
:1002A0002000F8BD704710B51C3000F07DFA10BD7D
:1002B00010B51C3000F06AFA10BD10B51C3000F00B
:1002C00079FA10BD70B5437E0D00002B01D10020DE
:1002D00070BD6430040000F076FA0028F7D12000E9
:1002E000290000F044FA0120F2E70000F7B501937D
:1002F000FA23002504009B0083600B4B4560083304
:1003000003601C300F00160000F026FA2000643055
:1003100000F022FA6B461B79276166756576A57633
:100320002000A375FEBDC046EC1F0000012330B5C0
:10033000A024C375837D13499B005A58437DC13265
:10034000114DFF32E40592009B005B581551CC2201
:10035000C133FF339B001D5104690C4B5204E25022
:1003600005220469243BE250837D04699B005A58AE
:10037000A123DB00E250437D02699B005958044BE6
:10038000D15030BD142400000C06000024050000EC
:100390000C05000010B51323142202490248FFF790
:1003A000A5FF10BD004000401C010020020010B558
:1003B0001B3200231C00013324340155092BF9D1D1
:1003C00009309042F5D110BD30B500292ADB002A52
:1003D00028DB0C25445F8C4224DD0E25445F9442CB
:1003E00020DD847E022C1ED0032C25D0012C04D1CC
:1003F0000489013CA41A0A0021B205246243511861
:10040000104AC9B2525C013AD4B20F4A515C092277
:1004100062430139C9B2801840180530002B00D062
:100420000123C37730BD0489013C611A448909B2B4
:10043000013CA21A12B2E0E74489013C641A11009F
:1004400022B2DAE7260000200D000020052210B5B8
:100450000400110000F0E4FD2000054B1B220833CE
:1004600023600021243001F01DF9200010BDC0469A
:10047000C423000070470000F7B5184C184F2378CC
:1004800001900021F85C00F029FC0025154E0121A7
:10049000A85D013500F022FC092DF7D12378013346
:1004A000DBB22370022B01D900232370002509221F
:1004B00023785343019AD3185B190533DB7F002B54
:1004C00003D0705D002100F009FC0135092DEED14B
:1004D00023780121F85C00F001FCF7BDD401002075
:1004E0003F0000200400002000220E4B0E49A220F5
:1004F00010B55A5004240121C000D9601C50FA24C0
:1005000008381A50A40038301C5008481A50C1222C
:1005100080209200400298508020054AC000106060
:10052000196010BD00A00040040500004405000053
:1005300000E100E0F8B5050000240126184B186022
:10054000184F3100E05D00F0ABFBE05D310001349D
:1005500000F0C4FB092CF3D10024134E0121A05D4F
:1005600000F09EFBA05D0021013400F0B7FB032CDE
:10057000F3D12C002B0000201B3400221100243169
:10058000591801320870092AF8D109339C42F4D174
:10059000064B18702800FFF7A7FF0120F8BDC046E2
:1005A000D8010020040000203F000020D4010020DA
:1005B0000C4B10B55A6C0C4C002A11D0C122920081
:1005C000A258D2030CD500225A64084B1868FFF7D2
:1005D00053FFA822FA21D200A35889005B18A35028
:1005E00010BDC046FCA0004000A00040D801002083
:1005F00010B5FFF7DDFF10BD10B503680021DB6B00
:10060000984710BDF7B50E0011490400019200F0A3
:100610000FFF002305270525E3760E4B7F4263611C
:10062000300001F001F900B201387843A8420EDA37
:100630000523258263822000FFF7DEFF31002000C2
:1006400000F073F8019800F0CFFA013DE8E7F7BD3C
:10065000B42300000100010070B50D000E49040034
:1006600000F0E6FE0023E3760C4B2800636101F006
:10067000DBF8012805D9962229002000FFF7C2FFE8
:1006800070BD2000FFF7B8FFA023DB022361290023
:10069000200000F04AF8F3E7B42300000100010055
:1006A00030B50D0004008BB02222002101A800F01B
:1006B000F9FF0A2201A9280000F0F0FF01A920009B
:1006C000FFF7CAFF0BB030BD10B5FFF7E9FF10BD53
:1006D00010B5FFF72FFF10BDF7B506000D000C0099
:1006E0008B180193019B671B9C4207D033682178CC
:1006F0001B683000984701340028F3D13800FEBD54
:1007000070B5040008000D0001F08EF823680200A7
:1007100029005B682000984770BD10B50B1E02D001
:10072000FFF7EEFF0300180010BD10B5FFF7F5FF4F
:1007300010BD000010B50249FFF7E2FF10BDC04632
:100740009824000070B50400FFF7E7FF05002000C3
:10075000FFF7F0FF401970BD10B5402200210400E2
:1007600000F0A0FF002320002364636410BD10B5D7
:100770003F24026C531C2340446C9C4201D08154A2
:10078000036410BD0023036443647047436C026C30
:10079000934206D03F21C25C01330B4043641000FA
:1007A000704701204042FBE7036C406C181A00D5EB
:1007B00040307047436C026C934201D0C05C70477C
:1007C00001204042FBE73F22036C406C01331340A1
:1007D000181A43425841C0B27047000003210A482A
:1007E00002680A430260094802680A430260084935
:1007F000084A094B9B1A03DD043BC858D050FBDC68
:1008000000F012F8FFF780FC24050040540500407A
:10081000842A000000000020C0000020FEE7FEE760
:10082000FEE7FEE7FEE7FEE7014B024A1A6070476B
:10083000440000200024F4000120704710B5036834
:100840001322DB69984710BD70470000054B026911
:10085000D1500369FC331A6A002AFCD0002201201F
:100860001A6270471C050000030010B55C331A784B
:100870001F231A401E3B19009140114AD167C22222
:10088000042104699200A150026953600269D36097
:10089000A02300220169DB00CA5001230169094A33
:1008A0005B428B500169084A8B5001690C3A8B50AE
:1008B000016908328B501430FFF764FF10BDC04649
:1008C00004E100E00C0500001405000010B5143030
:1008D000FFF76AFF10BD10B51430FFF76BFF10BDB6
:1008E00010B51430FFF752FF10BD0000030070B5C3
:1008F0005E331A780469724BE25003005D331A7854
:100900000469704BE250030061331C7802696E4B3E
:10091000012C00D09EE005005F352E78A225ED0069
:100920005651020060321578A1220669D200B550F6
:100930000269D4509623DB00994200D88CE09623BC
:100940001B01994200D88AE096235B01994200D8A6
:1009500088E096239B01994200D885E0E1239B0122
:10096000994200D882E09623DB01994200D880E0CA
:10097000E123DB01994200D87DE096231B029942D6
:1009800000D87AE0E1231B02994200D877E0962351
:100990005B02994200D874E0E1235B02994200D8DF
:1009A00071E0E1239B02994200D86EE0474B9942E7
:1009B00000D86CE0E123DB02994200D86AE0E12232
:1009C000002312038A425B41414A5B42134080226A
:1009D00052059B1801693F4A8B50A02304220169EC
:1009E000DB00CA5000210369FC33D9600369FC3382
:1009F0001962012301690B6001698B60C1210469DF
:100A0000890062501F215C3002780A4093406231B5
:100A1000314AFF3153500021415600293CDA0F235F
:100A20000B40083B2D4C9B089B001B1903242140C5
:100A3000A140FC348C40DD69A5432C00C0258D40CD
:100A400029002143D9611F23017819401E3B8B40A7
:100A5000136070BD00246CE79E23DB02BAE79D2380
:100A60001B03B7E71E4BB5E71E4BB3E7EC239B0315
:100A7000B0E71D4BAEE71D4BACE71D4BAAE71D4B86
:100A8000A8E71D4BA6E71D4BA4E71D4BA2E780235B
:100A9000DB049FE71B4B9DE78C080F4BA400E41879
:100AA00003230B40FF21C025DB009940AD006659B0
:100AB0008E433100C0269E4033000B436351C2E792
:100AC0000C050000140500006C05000090D0030028
:100AD00000D0BEFE2405000000E100E000ED00E0D3
:100AE00000B013000050270000A04E0000F0750079
:100AF00000509D0000F0EB0000903A0100E0D701AB
:100B000000B0AF0300705F07F7B5009308AB1B7828
:100B100000250193FA2304009B0083600E4B45607F
:100B20000833036014300F001600FFF715FE230092
:100B30005C3327611E70009B084A9B009958230074
:100B40005D331970019B20009B009A5823005E338F
:100B5000DD701A70FEBDC0469C2400001424000005
:100B6000036910B51A00FC32D2680400002A0AD0CA
:100B7000A322D20099581430C9B2FFF7F8FD002221
:100B80002369FC33DA6010BD10B50248FFF7E8FFB7
:100B900010BDC046DC010020162307B502220093D9
:100BA0000249013B0248FFF7AFFF07BD00200040AC
:100BB000DC010020FEE700000849094A094B10B596
:100BC0001B688858FA22190A1B0618439200002352
:100BD00000F0DAFC4904C00B084310BD00100140CE
:100BE000040500004002002070B5041E09D0FFF784
:100BF000E3FF050000F014F8FFF7DEFF401BA04202
:100C0000F8D370BD0022044B9A60044A1368013384
:100C1000DBB213607047C046FC1001404002002068
:100C20007047704710B500F011F8FFF7FAFF012088
:100C3000FFF7DAFFFFF7FEFAFFF7A8FA024B002BE7
:100C4000FAD000E000BFF7E700000000C420114B1D
:100C500080001A5810491140C02212020A431A504B
:100C6000C0218022490092025A501A608023A32298
:100C70000021DB05D20099500122F9309A60074B20
:100C8000FF301950C12002318000195040301950F6
:100C90001A60704700E100E0FF00FFFF0010014014
:100CA00000B5202810D80C4A8000835803290BD89F
:100CB000A0220800C133FF33D2059B0000F0CEFB19
:100CC000020905070021D15000BD0C21FBE70421DA
:100CD000F9E70321F7E7C0461424000020280AD8CA
:100CE000074B8000C25801239340A022D20500295F
:100CF00002D1044953507047A121C900FAE7C04608
:100D0000142400000C050000F0B51D0089B00EABE6
:100D100000241C5F0FAB1B8816000693A31ADA177A
:100D20009B18534002936B1ADA179B185340039396
:100D3000039A029B0190934205DC23002C001D00C6
:100D400033000E001900A64205DC2B000D0019002F
:100D5000230034001E00331B9BB204934B1BDA1795
:100D60009B18534007936B4610229A5ED30F9B1833
:100D70005B10009301238D4221DA0593B44224DCF9
:100D8000019B039A1B681B691F00029B934218DD9D
:100D900022002900069B0198B847009B079A9B1ADE
:100DA0009BB21AB20092002A06DA059AAD18049A8C
:100DB0002DB2D3181BB20093013424B2DEE75B429C
:100DC000DBE7069B2A002100E5E709B0F0BD70478C
:100DD00010B50468A468A04710BD37B506AC2588D7
:100DE00004680095246BA04737BD37B506AC25884D
:100DF00004680095646BA04737BD73B506AC002549
:100E0000655F07AC2688046801960095A46BA0472F
:100E100073BDF0B5160004000D0085B003930AAB56
:100E20001F880368DB689847039B2268013B9B1976
:100E30001BB200930197176A2B0032002900200093
:100E4000B847236820005B6A984705B0F0BDF0B54D
:100E500005001C000E00170085B00AAB1B88013C82
:100E600003930368A419DB68984703992A680191E2
:100E7000009723B23100146A28003A00A0472B687B
:100E800028005B6A984705B0F0BDF0B50E0087B04A
:100E900003930CAB029200229B5E050004930DAB02
:100EA0001B88340005930368DB689847039A2B6816
:100EB000B21894420ADA059A210000929F69029AB8
:100EC000049B28000134B84724B2EFE75B6A28008E
:100ED000984707B0F0BD13B501910E24015F0C22B5
:100EE000835E02680091946B00221100A04713BD3D
:100EF000F0B5040015000E0087B004930CAB00227F
:100F00009B5E05930DAB1B8803930368DB689847D2
:100F1000039A23680092DF692A00049B31002000B5
:100F2000B847059B03995A1E236800915219DF693F
:100F30003100049B200012B2B847039A2368009244
:100F40009F692A00059B31002000B8470499039A45
:100F5000236801390092891909B29F692A00059B0B
:100F60002000B847236820005B6A984707B0F0BDAF
:100F70007047F0B585B01E000AAB0027DF5F0BABF2
:100F80001B8814000500029103930268B14210D13E
:100F9000BC4202DC3B0027001C0003990134009195
:100FA000E31B166B1BB23A0002992800B04705B04C
:100FB000F0BDBC4211D1029BB34202DC3300029E61
:100FC0000293029B0399013300919B1B576B1BB249
:100FD000220031002800B847E9E7D3689847039A10
:100FE0002B68019200971F6A2800330022000299A3
:100FF000B8472B6828005B6A9847D8E70323194055
:1010000010B50822835E81760A24025F012904D08C
:10101000032902D08381C28110BD8281C381FBE795
:101020004281C2810122524242610222002310B554
:10103000FF32074C0283013A0834FF3A43600460F0
:101040000181818103618376C2760377036210BDDB
:10105000CC290000F0B595B01D001AAB1B88040028
:1010600005931BAB1E881CAB1B78089103931DAB2B
:101070001B7804920293036A002B00D0C4E00C2278
:10108000835E8B4200DC7DE00E22835E049A9342F5
:1010900078DD0623039A53435B18002B72DD029B15
:1010A000049ADB009B18002B6CDD037F002B03D11F
:1010B000AF2D01D90135EDB223682000DB689847D8
:1010C00005235D430B9300230793984B5B190F9304
:1010D000079A0F9B9B5C0A936B469B8B09936B460D
:1010E0009B890D936B460D9A1F8C099B5343FB18EC
:1010F0001BB20E9308230C930023069301220A9B34
:101100002068134252D06B461A8B198A039B012B1D
:101110003AD1029B012B37D1099B52180569D91985
:10112000059B12B209B22000A847069B01335BB2AF
:1011300006930A9B5B080A930C9B013BDBB20C9362
:10114000002BDBD1079B01335BB207930B9B013B69
:10115000DBB20B93002BBBD1059BB3420ED0039B9C
:101160002268012B3FD1029B012B3CD10537009611
:10117000956939B20733049A2000A84723682000F4
:101180005B6A984715B0F0BD6B460C255B5F029D0E
:101190006A438A18059912B2019169460825495F88
:1011A000009145690E992000A847BEE7059BB34210
:1011B000BBD06B46198B1A8A039B012B0AD1029B69
:1011C000012B07D1099B5218D91912B209B205692E
:1011D0003300A8E76B460C255B5F029D01966943CF
:1011E000521812B2D9E76B460C215B5E05210D98AF
:1011F0000196414302987918C0000090556909B2E0
:10120000049A2000A847B9E71A7AAD1AEDB25A68D5
:10121000ED001B68551913932B880993AB780D9338
:10122000EB7811930523EB560E930623EB560F93A1
:10123000039B012B02D8029B012B56D96B46382207
:101240009B5E0B936B463C229B5E0C9300272368AE
:101250002000DB68984707970697119B069A9A42E9
:1012600000D38BE76B461B8A00260A930C9B9B18C6
:10127000029A53430A9AD3181BB210933B000D9A5B
:1012800096424BD25A1CD2B212920722134207D175
:10129000099B0999139A0133525C9BB207920993F7
:1012A0006B461B7F5BB2002B17DA6B46198C039BD6
:1012B0002068012B1DD1029B012B1AD10A9B0F9A8A
:1012C0009A18069BD2180E9B12B2C9180369891985
:1012D0001D0009B2059B2000A847079B01365B0053
:1012E000DBB20793F6B2129BC9E700230C930B9372
:1012F000ACE76B460C229B5E0B9A039D92196A43E6
:101300008918059A09B201926A460825525F00922F
:10131000426920001500109AA847DEE7069D0D9B44
:101320000135FF18EBB2FFB2069396E7CC2400001C
:10133000F0B5026A85B004000B00002A34D10A29F6
:1013400008D1437E0282DB00628A9B1863820120FF
:1013500005B0F0BD0D29FAD0E17E007E657E002942
:101360000ED01026A15F0626464389190C27E65F9A
:10137000B14205DD1226A15F2282EA005218628284
:101380000290E08A1221625E0190A08A1026A15F7D
:10139000009003952000FFF75DFE0622237E534355
:1013A000228A9B182382D2E70A2905D100230382CF
:1013B000127B437E5343C7E70D29C8D0117A8B4275
:1013C000C5D3907A9842C2D3591AC9B25068C9009D
:1013D0004518AF78002F28D0E978002925D0E17E84
:1013E000207E667E002913D005216956C919414324
:1013F0008C461021675EBC440C21675EBC4507DD4E
:101400001227E15F00272782127B72435218628203
:101410000290E08A1221625E0190A08A1027E15FAB
:10142000009003962000FFF715FE2B79227EB6E789
:10143000036A002906D0002B02D1438A0633438277
:1014400001627047002BFBD0438A063BF7E70B0095
:1014500010B50100180000F0C1F810BD02B47146CB
:1014600049084900095C49008E4402BC7047C046E7
:10147000002243088B4274D303098B425FD3030AD3
:101480008B4244D3030B8B4228D3030C8B420DD3E6
:10149000FF22090212BA030C8B4202D31212090274
:1014A00065D0030B8B4219D300E0090AC30B8B42B2
:1014B00001D3CB03C01A5241830B8B4201D38B0360
:1014C000C01A5241430B8B4201D34B03C01A524105
:1014D000030B8B4201D30B03C01A5241C30A8B4248
:1014E00001D3CB02C01A5241830A8B4201D38B0233
:1014F000C01A5241430A8B4201D34B02C01A5241D7
:10150000030A8B4201D30B02C01A5241CDD2C30948
:101510008B4201D3CB01C01A524183098B4201D3C4
:101520008B01C01A524143098B4201D34B01C01AAF
:10153000524103098B4201D30B01C01A5241C30827
:101540008B4201D3CB00C01A524183088B4201D396
:101550008B00C01A524143088B4201D34B00C01A82
:101560005241411A00D20146524110467047FFE7EE
:1015700001B5002000F006F802BDC0460029F7D0F2
:1015800076E770477047C046F0B5CE46474615042B
:101590002D0C2E0080B50704140C3F0C9946030C4B
:1015A0007E435D43674363437F19340CE4199C46D3
:1015B000A54203D980235B029846C4444B4643436B
:1015C0005143250C36046544360C2404A4195B19D8
:1015D000591820000CBC90469946F0BD10B5040087
:1015E00004481300002804D00A000220210000E073
:1015F00000BF10BD00000000084B10B50400002B18
:1016000002D0002100E000BF054B1868836A002B60
:1016100000D09847200000F0B5FCC0460000000054
:101620001C2A000070B500260C4D0D4C641BA41044
:10163000A64209D1002600F0A7FC0A4D0A4C641B03
:10164000A410A64205D170BDB300EB5898470136EF
:10165000EEE7B300EB5898470136F2E7AC00002004
:10166000AC000020AC000020BC000020931E10B590
:101670000C00222B04D900231C000B70200010BD8D
:101680000A2A09D1002807DA2D230B7001214042D4
:10169000611800F0D1F8F1E70021F9E710B5FFF784
:1016A000E5FF10BD03001218934200D17047197076
:1016B0000133F9E770B50500002910D00C1F23682D
:1016C000002B00DAE418280000F029F91D4A1368FD
:1016D000002B05D163601460280000F021F970BD73
:1016E000A34209D9216860188342F3D118685B6866
:1016F00041182160EEE713005A68002A01D0A24287
:10170000F9D919685818A0420BD12068091858183F
:1017100019608242E0D110685268411819605A601D
:10172000DAE7A04202D90C232B60D5E721686018C4
:10173000824203D1106852684118216062605C6087
:10174000CAE7C04644020020032370B5CD1C9D4368
:10175000083506000C2D1ED20C25A9421DD83000DC
:1017600000F0DDF8254A14682100002919D1244C25
:101770002368002B03D1300000F044F820602900DA
:10178000300000F03FF8431C2BD10C2330003360B5
:1017900000F0C6F803E0002DDFDA0C2333600020F0
:1017A00070BD0B685B1B19D40B2B03D90B60CC18D5
:1017B000256003E04B688C420DD11360300000F0CF
:1017C000AFF8200007220B30231D9043C31AE7D047
:1017D0005A42E250E4E763600C00EFE70C0049680E
:1017E000C3E70323C41C9C43A042E1D0211A30006C
:1017F00000F008F8431CDBD1C7E7C04644020020D4
:1018000048020020002370B5064C05000800236044
:1018100000F0AAFB431C03D12368002B00D02B60EF
:1018200070BDC046500200200023C25C0133002A74
:10183000FBD1581E70470000F0B517008DB025226F
:1018400006000D0002A8144900F060F802AABB1EB1
:1018500000240192222B05D92C70250028000DB000
:10186000F0BD140030003900FFF788FE844601986F
:10187000621CAB18415C5E1E31706646002EF0D1D2
:101880001E702B005A1B9442E8DD1A78295D1970EE
:101890002A550133013CF5E7202A000030B5140039
:1018A0009BB005001A00002C05DA8B230360012091
:1018B00040421BB030BD822368469B0083810023D9
:1018C000009104919C4200D0631E02930593012372
:1018D00069465B42CB8128001E9B00F085F8431CC3
:1018E00001DA8B232B60002CE3D00023009A1370C5
:1018F000DFE7000007B5009313000A00010002486B
:101900000068FFF7CBFF0EBD48000020002310B594
:101910009A4200D110BDCC5CC4540133F8E7704743
:1019200070470000F0B58E6885B007000C00039288
:1019300001939E423CD890238A89DB001A4234D01E
:101940000325096923685B1A0293636902985D4362
:10195000EB0F5D19019B6D1001331B18AB4200D9D1
:101960001D00530532D529003800FFF7EDFE061E95
:1019700009D10C233B6040230120A289404213433C
:10198000A38105B0F0BD029A2169FFF7BFFFA389CB
:10199000144A1A4080231343A381029B2661F61840
:1019A00026606561019EED1AA560019B9E4200D9EB
:1019B000019E32000399206800F095FAA368002088
:1019C0009B1BA36023689E192660DAE72A00380073
:1019D00000F09CFA061EE0D121693800FFF76AFE8C
:1019E000C7E7C0467FFBFFFFF0B59FB002900593AD
:1019F0008B890F0016001B0611D50B69002B0ED129
:101A00004021FFF7A1FE38603861002805D10C2382
:101A1000029A013813601FB0F0BD40237B610023A0
:101A200006AC6361203363761033A37635002B78E0
:101A3000002B01D0252B46D1AB1B04930CD03200D8
:101A400039000298FFF76EFF431C00D1AEE06269D7
:101A5000049B9446634463612B78002B00D1A5E07E
:101A6000012200235242626002A9543252186E1CB5
:101A70002360E360A3601370A365317805225448A6
:101A800000F026FA751C00281FD12268D30604D561
:101A9000532302A95B1820211970130704D553237F
:101AA00002A95B182B21197033782A2B16D0350028
:101AB00000210A20E3682A786E1C303A092A4ED9A0
:101AC000002918D010E00135B1E7414B2268C01A57
:101AD00001238340134323602E00CEE7059B191D8D
:101AE0001B680591002B01DB099304E05B42E36076
:101AF0000223134323602B782E2B0AD16B782A2BD9
:101B000035D1059B02351A1D1B680592002B2BDB76
:101B10000793304E29780322300000F0D9F90028CD
:101B200006D04023801B8340226801351343236085
:101B30002978062228486E1C217600F0C9F9002871
:101B40003CD0264B002B25D10722059B073393431E
:101B5000083305936369039A9B18636166E74343FF
:101B600001219B183500A6E701235B42D0E7002343
:101B70000A201A000135636029786E1C3039092962
:101B800003D9002BC5D00792C3E742430123521863
:101B90003500F1E705AB00933A00114B21000298A4
:101BA00000E000BF0390039B0133D3D1BB890B98A6
:101BB0005B0600D42FE7012040422CE705AB0093E1
:101BC0003A00074B2100029800F07AF8EAE7C04695
:101BD000452A00004B2A00004F2A000000000000A8
:101BE00025190000F7B5150001938A680B6900906C
:101BF0000C00934200DA130022002B60433212786B
:101C0000002A01D001332B6023689B0602D52B6884
:101C100002332B60062723681F4027D0230043335D
:101C20001B785A1E93412268920630D422000199F3
:101C300043320098089EB047431C25D006232068F5
:101C40002A68E16803400025042B03D18D1AEB4379
:101C5000DB171D40A3682269934201DD9B1AED1832
:101C60000027BD4220D1002010E00137E3682A6838
:101C70009B1ABB42D2DD2200012319320199009840
:101C8000089EB047431CF0D101204042FEBD3020E9
:101C9000E1184331087021005A1C45310978A21817
:101CA000433202331170C1E7220001231A32019935
:101CB0000098089EB047431CE6D00137D1E70000EA
:101CC000F0B589B004920A00433205930390029262
:101CD0000A7E0C000E9B6E2A00D186E01FD8632A74
:101CE00033D008D8002A00D18CE0582A4DD02500E6
:101CF00042352A7030E0642A01D0692AF7D1196888
:101D000025680A1D280629D508681A60002803DA04
:101D10002D23029A404213706B4E0A274FE0732A1C
:101D200074D008D86F2A1FD0702AE0D12022096809
:101D30000A43226003E0752A16D0782AD7D1220000
:101D4000782145321170614E22E025001A68423533
:101D5000111D196013682B70012365E008681A6073
:101D60006906D3D500B2D1E719682568081D186047
:101D700008682E0605D5544E08276F2A1BD00A275F
:101D800019E06D06F7D580B2F5E745314E4E0A7081
:101D900018682268011D00681960150621D5D3074F
:101DA00002D520231A4322601027002803D12023C4
:101DB00022689A4322602300002243331A7063682A
:101DC000A360002B58DB0422216891432160002886
:101DD00054D1029D002B5AD02500337842352B7008
:101DE00055E05506DBD580B2D9E71A680D68101D9D
:101DF0004969186013682E0601D5196002E06D0666
:101E0000FBD519800023029D23614FE01A68111D44
:101E10001960156800216268280000F059F8002850
:101E200001D0401B6060636823610023029A137035
:101E30003CE023692A0004990398059DA847431CA8
:101E40003ED023689B0715D4079BE068984239DA97
:101E5000180037E022000123193204990398059EE7
:101E6000B047431C2CD00135E368079A9B1AAB425C
:101E7000F0DCE9E70025F7E70028ADD0029D390046
:101E8000FFF77CFB735C013D2B700028F7D1082F16
:101E900009D12368DB0706D563682269934202DC17
:101EA0003023013D2B70029B5B1B2361059B07AA1E
:101EB00000932100049B0398FFF794FE431CB8D1C4
:101EC0000120404209B0F0BD562A0000672A0000F8
:101ED000C9B28218904201D10020704703788B422A
:101EE000FBD00130F6E710B5884202D98B18984232
:101EF00003D3002307E08B5C8354013AFBD210BD6F
:101F0000CC5CC45401339A42FAD1F8E7F8B5070023
:101F10000D001600002905D11100FFF715FC040083
:101F20002000F8BD002A03D1FFF7C4FB3400F7E717
:101F300000F012F82C00B042F2D231003800FFF766
:101F400003FC041EECD029003200FFF7DFFC29005F
:101F50003800FFF7AFFBE3E70B1F1B68181F002BD0
:101F600001DA0B58C0187047044A1368002B00D1DF
:101F7000034B1818106018007047C0464C02002030
:101F800058020020FEE7C046F8B5C046F8BC08BCC1
:101F90009E467047F8B5C046F8BC08BC9E467047E0
:101FA000D21F0000D91F0000E31F00005B554E4BFD
:101FB0004E4F574E5D00436F6E6E656374656400EF
:101FC000496E697469616C697A696E6720754269E6
:101FD00074005B494E464F5D005B5741524E494E7F
:101FE000475D005B4552524F525D0000000000000B
:101FF00000000000C502000081020000A7020000EE
:10200000B1020000BB020000A502000000000101B7
:102010000200FB00010001050200FB0002000302B8
:102020000400FB00030003050400FB00050003059A
:102030000400FB00070003050400FB000900030582
:102040000400FB000B0001020200FB000C00020573
:102050000300FB000E0002050300FB001000030359
:102060000400FB00120003030400FC001400020241
:102070000300FE00150003010400FD00160001012D
:102080000200FF00170003050400FB001900030510
:102090000400FB001B0002050300FB001D000305FC
:1020A0000400FB001F0003050400FB0021000305E2
:1020B0000400FB00230003050400FB0025000305CA
:1020C0000400FB00270003050400FB0029000305B2
:1020D0000400FB002B0003050400FB002D0001039E
:1020E0000200FC002E0002040300FC002F00030588
:1020F0000400FB00310003030400FC00330003056F
:102100000400FB00350003050400FB003700030555
:102110000400FB00390003050400FB003B0003053D
:102120000400FB003D0003050400FB003F00030525
:102130000400FB00410003050400FB00430003050D
:102140000400FB00450003050400FB0047000305F5
:102150000400FB00490003050400FB004B000305DD
:102160000400FB004D0003050400FB004F000305C5
:102170000400FB00510003050400FB0053000305AD
:102180000400FB00550003050400FB005700030595
:102190000400FB00590003050400FB005B0003057D
:1021A0000400FB005D0003050400FB005F00030565
:1021B0000400FB00610003050400FB00630003054D
:1021C0000400FB00650003050400FB006700030535
:1021D0000400FB00690003050400FB006B0003051D
:1021E0000400FB006D0003050400FB006F00030307
:1021F0000400FC00710003050400FB0073000302EF
:102200000400FB00740003010400FF0075000202DB
:102210000300FB00760003040400FC0078000305C3
:102220000400FB007A0003040400FC007C000305AA
:102230000400FB007E0003040400FC008000030592
:102240000400FB00820003050400FC008400030579
:102250000400FB00860001050200FB008700030666
:102260000400FB008A0003050400FB008C0003054A
:102270000400FB008E0003040400FC009000030433
:102280000400FC00920003040400FC009400030519
:102290000400FC00960003050400FC009800030401
:1022A0000400FC009A0003040400FC009C000305E9
:1022B0000400FB009E0003040400FC00A0000304D3
:1022C0000400FC00A20003040400FC00A4000304BA
:1022D0000400FC00A60003050400FC00A8000304A1
:1022E0000400FC00AA0003050400FB00AC0001058B
:1022F0000200FB00AD0003050400FB00AF00030279
:102300000400FB0000E8B4BEFA79E48542DBD6C0E5
:102310006A409580AA805D0060E080254876DC7583
:1023200040C54EC51CB792F31C73DEE548F7DEF7D7
:102330009CA0462A22E38088A8E50457C657DAD72E
:102340005C7246D6DCF3CEF3C873D6B7DAE92E2436
:10235000D4B75A924EBFDABFFA56D4D74856F6D7FA
:10236000EA711CE924B6D6B6A4B7FAB55AB524E585
:102370004EF24E8880E49E54E090CEF09ADC7230AB
:102380002ED677302BA477949ADAB8209A80976A61
:10239000C92EFFD0D6D056A0D6E876B2724079E0EA
:1023A0005D26B6B0B7A0BFF0A950B594EF706A260D
:1023B000D8C8AC78042300000C20000020007E0068
:1023C00006000000000000000000000031130000C3
:1023D000D9060000C9030000CF0D0000D10D000098
:1023E000FB0D0000DB0D0000EB0D0000090D0000EF
:1023F000CF0D0000FD0F0000710F0000130E000054
:102400004F0E00008B0E0000AD030000730F0000A4
:10241000F10E0000030000000200000001000000B7
:102420000400000005000000110000000C00000086
:102430000B000000120000000A000000060000006F
:102440001A00000014000000170000001600000031
:102450001500000010000000FFFFFFFFFFFFFFFF5F
:10246000000000001E00000019000000180000001D
:102470000700000008000000090000000D00000037
:102480000E0000000F0000001C0000001B000000F8
:102490001D000000130000000D0A000000000000F5
:1024A000000000004D080000D9060000CD08000023
:1024B000E1080000D7080000490800003D080000BE
:1024C000ED08000069080000390800000000000065
:1024D000003E5B4F5B3E3E6B4F6B3E1C3E7C3E1CAA
:1024E000183C7E3C181C577D571C1C5E7F5E1C00F0
:1024F000183C1800FFE7C3E7FF0018241800FFE7A7
:10250000DBE7FF30483A060E2629792926407F0569
:102510000507407F05253F5A3CE73C5A7F3E1C1C7F
:1025200008081C1C3E7F14227F22145F5F005F5F3F
:1025300006097F017F006689956A6060606060942B
:10254000A2FFA29408047E040810207E2010080830
:102550002A1C08081C2A08081E101010100C1E0C3B
:102560001E0C30383E3830060E3E0E0600000000CD
:102570000000005F00000007000700147F147F14B4
:10258000242A7F2A122313086462364956205000F9
:1025900008070300001C2241000041221C002A1CE5
:1025A0007F1C2A08083E08080080703000080808D0
:1025B0000808000060600020100804023E514945F0
:1025C0003E00427F400072494949462141494D330E
:1025D0001814127F1027454545393C4A4949314175
:1025E000211109073649494936464949291E000043
:1025F0001400000040340000000814224114141498
:102600001414004122140802015909063E415D5983
:102610004E7C1211127C7F494949363E414141228C
:102620007F4141413E7F494949417F090909013EB6
:10263000414151737F0808087F00417F41002040DD
:10264000413F017F081422417F404040407F021CEF
:10265000027F7F0408107F3E4141413E7F09090906
:10266000063E4151215E7F091929462649494932D2
:1026700003017F01033F4040403F1F2040201F3F98
:102680004038403F6314081463030478040361591D
:10269000494D43007F41414102040810200041415F
:1026A000417F04020102044040404040000307080B
:1026B0000020545478407F28444438384444442807
:1026C000384444287F385454541800087E090218AE
:1026D000A4A49C787F0804047800447D4000204036
:1026E000403D007F1028440000417F40007C04787A
:1026F00004787C080404783844444438FC182424C2
:102700001818242418FC7C08040408485454542441
:1027100004043F44243C4040207C1C2040201C3CBE
:102720004030403C44281028444C9090907C4464B5
:10273000544C440008364100000077000000413648
:10274000080002010204023C2623263C1EA1A161CE
:10275000123A4040207A3854545559215555794100
:102760002254547842215554784020545579400CD5
:102770001E527212395555555939545454593955B8
:102780005454580000457C410002457D42000145FB
:102790007C407D1211127DF0282528F07C5455458F
:1027A000002054547C547C0A097F493249494932FB
:1027B0003A4444443A324A4848303A4141217A3A0C
:1027C00042402078009DA0A07D3D4242423D3D40D8
:1027D00040403D3C24FF2424487E4943662B2FFC87
:1027E0002F2BFF0929F620C0887E09032054547935
:1027F000410000447D413048484A32384040227A06
:10280000007A0A0A727D0D19317D2629292F282682
:102810002929292630484D4020380808080808088A
:102820000808382F10C8ACBA2F102834FA00007BE3
:10283000000008142A142222142A140855005500F6
:1028400055AA55AA55AAFF55FF55FF000000FF00E5
:10285000101010FF00141414FF001010FF00FF10E0
:1028600010F010F0141414FC001414F700FF000012
:10287000FF00FF1414F404FC141417101F10101F91
:10288000101F1414141F00101010F0000000001F7F
:10289000101010101F10101010F010000000FF108A
:1028A0001010101010101010FF10000000FF140086
:1028B00000FF00FF00001F10170000FC04F41414B8
:1028C0001710171414F404F40000FF00F714141484
:1028D00014141414F700F7141414171410101F1004
:1028E0001F141414F4141010F010F000001F101F27
:1028F0000000001F14000000FC140000F010F01095
:1029000010FF10FF141414FF141010101F0000000B
:1029100000F010FFFFFFFFFFF0F0F0F0F0FFFFFF0F
:102920000000000000FFFF0F0F0F0F0F3844443866
:1029300044FC4A4A4A347E02020606027E027E02B5
:1029400063554941633844443C04407E201E2006C0
:10295000027E020299A5E7A5991C2A492A1C4C72FD
:1029600001724C304A4D4D303048784830BC625A84
:10297000463D3E494949007E0101017E2A2A2A2A14
:102980002A44445F444440514A444040444A5140F0
:102990000000FF0103E080FF000008086B6B0836B1
:1029A00012362436060F090F060000181800000022
:1029B0001010003040FF0101001F01011E00191D11
:1029C0001712003C3C3C3C000000000000000000EE
:1029D0000000000031130000D9060000B50B000014
:1029E000CF0D0000D10D0000FB0D0000DB0D00003D
:1029F000EB0D0000090D0000CF0D0000FD0F0000E1
:102A0000710F0000130E00004F0E00008B0E00002F
:102A1000D70E0000730F0000F10E00004C000020E4
:102A20003031323334353637383961626364656644
:102A30006768696A6B6C6D6E6F70717273747576AE
:102A40007778797A00232D302B2000686C4C006554
:102A500066674546470030313233343536373839CA
:102A600041424344454600303132333435363738FD
:0C2A7000396162636465660000000000CC
:082A7C008CD6FF7F0100000071
:102A84000000000003040A171819090706010402CC
:102A940005030405060708020903090108070605DA
:102AA40004030701060201020102010303030303F5
:102AB4000201020302010101010103020302031ADC
:102AC4001B1C00000024F4004C0000200000000047
:102AD40000000000000000000000000000000000F2
:102AE40000000000000000000000000000000000E2
:102AF40000000000000000000000000000000000D2
:102B040000000000000000000000000000000000C1
:102B140000000000000000000000000000000000B1
:102B2400000000000000000000000000E9000000B8
:102B34009101000095030000990B0000C100000002
:04000003000007DD15
:00000001FF
